:020000040000FA
:08000000803102288731F52F41
:100B000071084001DE007008DD0008007108400136
:100B1000E2007008E100080071084001E000700880
:100B2000DF000800F10071088531B125853108002A
:100B3000640080010131890B992D0034603051012E
:100B40008D008F01910106309300920108004F0142
:100B500096019701980199019A019B019C019D01C1
:100B60000800F0004E010F1EB62DB72DB22D7008F3
:100B700042019A000800803047018E0002308D004B
:100B8000C0308C0044011F08F33904389F0008006E
:100B900080304701920004309100C0309000440141
:100BA0001F08CF3920389F00080051011712181470
:100BB0009810181698120F30990008309B000930D1
:100BC0009A00971708000130450190008F019101AC
:100BD00005308D008C014E019010803045018E0053
:100BE00008000130450196009501970109309300F6
:100BF00092014E01901180304501940008007C0163
:100C000091011F30920093019401950102309600EA
:100C1000023097009801990180309000080001305F
:100C200045019C0003309B000E309D00043099006C
:100C300098014E019012803045019A0008007C0115
:100C40009B012A309C002B309D009E019F010A30A1
:100C5000A0000A30A100A201A30180309A00080080
:100C60004C0191010F308E000F308F001430920034
:100C70009301940101308C000B308D008430900082
:100C8000080082307C01A5002130A6001230A700A8
:100C9000A801A9010230AA00AB010830AC00AD01E7
:100CA0008630A40008005830FD007D084001DA00BD
:100CB0005708CF005608CE005A30FD007D08D000FE
:100CC00000308631882686310800083042019F00B6
:100CD00080309D0024309E0040309B0003309C00FB
:100CE0000030F0000030F10085318625863100307B
:100CF000F0000030F10085318C2586310030F000A5
:100D00000030F1008531802586314001C80108009E
:100D10004001D3004F08D5004E08D400C001C101E6
:100D2000A22E5430D1005108FA005008D2005208C7
:100D3000FB00530887317B2786317A084001C007C2
:100D40007B08C13D54088400550885001200031D2E
:100D5000AA2EAB2E912E4108CF004008CE000800ED
:100D60008531A725863187310727863185319E2534
:100D7000863186311F2686318531F12586318531D0
:100D8000E32586318531BB25863186310F268631B4
:100D90008531FF2586318631412686318531C8254A
:100DA00086318531D52586318631302686318631AA
:100DB0006526863108008631B02686310230400132
:100DC000D6008830D700863153268631400118116D
:100DD00005304001DC000F30DB00F130890BEE2ED6
:100DE000DB0BEE2EDC0BEE2EFF2E0030D600883013
:100DF000D70086315326863140011815E82E400170
:100E00000E1D032F042FF52EDE2E80310228400107
:100E1000980199019A0138309200F0309300B43073
:100E20009400B0307E01CE00F030C3002030B80016
:100E3000C401B9010430CF00BA01C501D001373077
:100E4000BB00F030C600FF30D1003F30BC00F030B6
:100E5000C700FF30D2000330A0000130A3000430EF
:100E60007D01BB0002307E01A1001A3091000F30DD
:100E7000A6001A309000080074080319402F412F73
:100E8000462F7408031D452F462F4B2F72088531BE
:100E9000922587317A2F7408033E86008701160059
:100EA00001040319542F552F722F7408033E860036
:100EB0008701403FF500413FF600740A8600870134
:100EC000403FF700413FF8007808803AF900760883
:100ED000803A7902031D6E2F750877020318712F6F
:100EE000722F7A2F740A8600870101308107413101
:100EF0000318810A0800FC007A0886008701403F39
:100F00004001C900413FCA00490884004A088500E1
:100F10001200253A031D8D2F8E2FD22F7A088600BE
:100F200087010130810741310318810AC201C301E1
:100F3000C601C701FF30C400FF30C5007A08860033
:100F40008701403FC900413FCA00490884004A0860
:100F500085001200253A031DAE2FAF2FC72F7A0848
:100F6000860087010130810741310318810A25304D
:100F7000F2000030F3007C08C9004908F400873112
:100F80003C2787310130FA000030FB00F42F7A084B
:100F9000860087010130810741310318810AFA0177
:100FA000FB01F42F7A0886008701403FC900413FCA
:100FB000CA00490884004A0885000008CB00CC011B
:100FC0004B08F2004C08F3007C08CD004D08F400FB
:100FD00087313C2787317A088600870101308107F5
:100FE00041310318810AC22F0800203084000030EC
:100FF0008500293085319825873140018631DB2EE7
:08100000483400344C34003484
:020000040001F9
:0A000E00EC3FFF3F9F3FFF3FFF3F25
:00000001FF
