:020000040000FA
:0400000080312828FB
:100008007E148031200098172E00191E0C280D2808
:1000180017280F1E1028112817280F1289311621AA
:10002800803122009A002E00961E1B281C282428A6
:100038008C1E1F28202824288C128931BA2180314F
:10004800200098137E10090080312A284B30840044
:1000580089308500D2308600003087001030873123
:10006800FA278031FC01EF01BC30840000308500A4
:1000780016308831FF2080317E1020008631872E8F
:10008800200043088039C8004808CD004335C8001F
:100098004808D300C21F5128522853285314530824
:1000A8000319572858286728530A031D5C285D2818
:1000B80065280030C3000030C2000030C1000030A5
:1000C800C000C2176F280030C3000030C2000030E3
:1000D800C1000030C00047088039C8004808CD0674
:1000E8004735C8004808D200C61F7B287C287D28D1
:1000F800521452080319812882289128520A031D94
:10010800862887288F280030C7000030C6000030B6
:10011800C5000030C400C61799280030C700003059
:10012800C6000030C5000030C400520803199D28DD
:100138009E28A3285308031DA228A328AC28003012
:10014800C3000030C2000030C1000030C0009A2A4D
:100158004008C8004808F20046088A311322803156
:1001680073082000D9007208D8005808C800C901CF
:10017800CA01CB014B08D1004A08D0004908CF007A
:100188004808CE005908C800C901CA01CB014B086C
:10019800D7004A08D6004908D5004808D4004108C5
:1001A800C8004808F20045088A31132280317308D4
:1001B8002000D9007208D8005808C800C901CA012F
:1001C800CB014808CE074908CF3D4A08D03D4B0827
:1001D800D13D5908C800C901CA01CB014808D40754
:1001E8004908D53D4A08D63D4B08D73D4208C800C6
:1001F8004808F20044088A3113228031730820002D
:10020800D9007208D8005808C800C901CA01CB0132
:100218004808CE074908CF3D4A08D03D4B08D13D94
:100228005908C800C901CA01CB014808D4074908C0
:10023800D53D4A08D63D4B08D73D0830CE35CF0DC1
:10024800D00DD10D890B22294108C8004808F200B9
:1002580044088A311322803173082000D9007208BB
:10026800D8005808CE075908CF3D0030D03DD13DC1
:100278004008C8004808F20045088A311322803136
:1002880073082000D9007208D8005808CE0759080A
:10029800CF3D0030D03DD13D0830CE35CF0DD00D0B
:1002A800D10D890B51294008C8004808F2004408BC
:1002B8008A311322803173082000D9007208D800CF
:1002C8005808CE075908CF3D0030D03DD13D4108F0
:1002D800C8004808F20046088A31132280317308A2
:1002E8002000D9007208D8005808D4075908D53D0D
:1002F8000030D63DD73D4208C8004808F2004508FE
:100308008A311322803173082000D9007208D8007E
:100318005808D4075908D53D0030D63DD73D420886
:10032800C8004808F20046088A3113228031730851
:100338002000D9007208D8005808C8005908C90018
:10034800CA01CB010830C835C90DCA0DCB0D890BC0
:10035800A7294808D4074908D53D4A08D63D4B087F
:10036800D73D4E08C8004F08C9005008CA005108B8
:10037800CB001830CB36CA0CC90CC80C890BBE2967
:100388004808D4074908D53D4A08D63D4B08D73D0B
:100398000830CE35CF0DD00DD10D890BCD2953089E
:1003A8005207C800C901C90D4808823ED800FF306D
:1003B800493DD900F6290130D435D50DD60DD70DD4
:1003C800890BE029D11FE929EA29EB2954140130C6
:1003D800CE35CF0DD00DD10D890BEC29FF30D807C4
:1003E800FF30D93DD61FF929FA29DF29D201D11FBB
:1003F800FE29FF291B2AFF304E05C800FF304F0594
:10040800C900FF305005CA007F305105CB004B08AA
:100418004A04490448040319122A132A162AD20145
:10042800D20A1B2A541C192A1A2A1B2A132A5208D0
:1004380003191F2A202A482A0130D4070030D53D45
:100448000030D63D0030D73D571C2B2A2C2A482A8D
:100458005408C8005508C9005608CA005708CB00F8
:100468000130CC00CB37CA0CC90CC80CCC0B362ACF
:100478004B08D7004A08D6004908D5004808D400D8
:100488000130D8070030D93D5908803AC80080307B
:100498004802031D512AFF305802031C542A552ACA
:1004A8005F2A7F302000D7008030D6000030D5008A
:1004B8000030D4008E2A20005908803AC8008030C5
:1004C8004802031D692A0130580203186C2A6D2A54
:1004D800782A00302000D7000030D6000030D50040
:1004E8000030D400CD018E2A20005808C8004808E2
:1004F800D300FF30D405FF30D5057F30D605003056
:10050800D705531C882A892A8A2AD6175336C80041
:100518004808D7004D08C8004808D7045708C30042
:100528005608C2005508C1005408C0000800200041
:1005380043088039C8004808D0004335C800480837
:10054800D200C21FA82AA92AAA2A5214520803199B
:10055800AE2AAF2ABF2A520A031DB32AB42ABC2ADC
:100568000030C3000030C2000030C1000030C000BD
:10057800C217C301C72A0030C3000030C2000030D0
:10058800C1000030C00047088039C8004808D100C1
:10059800510850060319D12AD22AD32A50174735B1
:1005A800C8004808D100C61FDA2ADB2ADC2A511401
:1005B80051080319E02AE12AF12A510A031DE52A04
:1005C800E62AEE2A0030C7000030C6000030C50019
:1005D8000030C400C617C701F92A0030C700003030
:1005E800C6000030C5000030C4005208510203188C
:1005F800FE2AFF2A432B501F022B032B072B803088
:10060800C8004808D0065208C8004808D300510856
:10061800C8004808D2005308C8004808D10040085C
:10062800C8004808D3004408C8004808C000530858
:10063800C8004808C4004108C8004808D300450855
:10064800C8004808C1005308C8004808C500420847
:10065800C8004808D3004608C8004808C200530824
:10066800C8004808C6004308C8004808D30047081F
:10067800C8004808C3005308C8004808C700D30189
:100688005108C800C9014908CB0052084802CA00ED
:10069800031CCB034B08803ACC0080304C02031D6E
:1006A800572B1A304A02031C5A2B5B2B932B200022
:1006B8004308420441044004031D632B652B0130A9
:1006C800662B0030C8004808D3000030C300003053
:1006D800C2000030C1000030C0005108C8004808FE
:1006E800D2009A2B531C792B7A2B802B5336013846
:1006F800C8004808D300822B0310D30C401C852B5C
:10070800862B872BD3170130C800C337C20CC10C06
:10071800C00CC80B892B0130C8004808D20720003C
:1007280051085202031C992B9A2B762B501B9D2B98
:100738009E2BD62B5208031DA22BA32BAC2B0030CB
:10074800C3000030C2000030C1000030C000D22C0D
:100758004408C0074508C13D4608C23D4708C33D97
:10076800431CB72BB82B622C531CBB2BBC2BC22BA6
:1007780053360138C8004808D300C42B0310D30CE3
:10078800401CC72BC82BC92BD3170130C800C3374F
:10079800C20CC10CC00CC80BCB2B0130C8004808D8
:1007A800D207622C4308803AC8004708803A4802BA
:1007B800031DE82B46084202031DE82B45084102A9
:1007C800031DE82B440840020318EB2BEC2B242CC8
:1007D800FF30C800FF30C900FF30CA00FF30CB002F
:1007E80040084402CC004108453BCD004208463B46
:1007F800CE004308473BCF004C08C8074D08C93D09
:100808004E08CA3D4F08CB3D4B08C3004A08C200FA
:100818004908C1004808C0008030C8004808D00610
:10082800D309D30A5308031D1A2C1B2C2C2C013076
:10083800C0070030C13D0030C23D0030C33D2C2C04
:100848004408C0024508C13B4608C23B4708C33BB1
:100858004308420441044004031D332C342C5E2C0D
:100868005308031D382C392C5E2C0030C30000308F
:10087800C2000030C1000030C000D22C0130C035A9
:10088800C10DC20DC30D890B432CD31F4C2C4D2C0D
:100898004E2C4014531C512C522C552C0314D30DA0
:1008A800572C0310D30D520803195B2C5C2C5E2CBB
:1008B8000130D202C21F612C622C422CD101D31FFD
:1008C800662C672C752C53087F3903196C2C6D2CFA
:1008D800702CD101D10A752C401C732C742C752CEA
:1008E8006D2C51080319792C7A2CA72C0130C007DC
:1008F8000030C13D0030C23D0030C33D431C852C53
:10090800862CA72C4008C8004108C9004208CA0024
:100918004308CB000130CC00CB37CA0CC90CC80C3B
:10092800CC0B902C4B08C3004A08C2004908C100F0
:100938004808C000520A0319A22CA32CA72C013086
:10094800C8004808D207520A0319AB2CAC2CB12CAA
:100958005208031DB02CB12CBF2C0030C30000304E
:10096800C2000030C1000030C0005208031DBD2C79
:10097800BE2CBF2CD001521CC22CC32CC52CC217B4
:10098800C92C7F30C8004808C2055236C80048083C
:10099800C300D01FD02CD12CD22CC31708002000A4
:1009A8002D088039AE002E08B7002D35AE002E0870
:1009B800BE00AC1FE02CE12CE22C3E143E080319CB
:1009C800E62CE72CF72C3E0A031DEB2CEC2CF42C20
:1009D8000030AD000030AC000030AB000030AA00A1
:1009E800AC17AD01FF2C0030AD000030AC0000307A
:1009F800AB000030AA0029088039AE002E08B706DF
:100A08002935AE002E08BF00A81F0B2D0C2D0D2D6B
:100A18003F143F080319112D122D222D3F0A031DE3
:100A2800162D172D1F2D0030A9000030A80000300A
:100A3800A7000030A600A817A9012A2D0030A90098
:100A48000030A8000030A7000030A60029082804BC
:100A580027042604031D312D322D4B2D0030AD0007
:100A68000030AC000030AB000030AA008030AC048D
:100A78007F30AD043708AE002E08AD042D08A9005C
:100A88002C08A8002B08A7002A08A600862E3E08D6
:100A9800031D4F2D502D592D0030A9000030A800FE
:100AA8000030A7000030A600862E3E08AE00AF0139
:100AB8002F08B1003F082E02B000031CB103300814
:100AC8007F3EB8000030313DB9002D08B6002C0833
:100AD800B5002B08B4002A08B3000030AD00003080
:100AE800AC000030AB000030AA000030BD00003080
:100AF800BC000030BB000030BA00BF01C12D3F0868
:100B08000319872D882DA22D0130B335B40DB50DED
:100B1800B60D890B892D0130AA35AB0DAC0DAD0D85
:100B2800890B902DBD1F992D9A2D9B2D2A140130CC
:100B3800BA35BB0DBC0DBD0D890B9C2D290836029D
:100B4800031DB02D28083502031DB02D27083402D7
:100B5800031DB02D26083302031CB32DB42DBD2D63
:100B68003D172608B3022708B43B2808B53B2908D7
:100B7800B63B0130AE002E08BF071A303F02031CF7
:100B8800C62DC72D832D36083504340433040319C4
:100B9800CE2DCF2DE82D3A14E82D0130AA35AB0D16
:100BA800AC0DAD0D890BD22DBD1FDB2DDC2DDD2D40
:100BB8002A140130BA35BB0DBC0DBD0D890BDE2DD5
:100BC800FF30B807FF30B93DAC1FEB2DEC2DD12D10
:100BD800BF01BD1FF02DF12D0D2EFF303A05AE00DF
:100BE800FF303B05AF00FF303C05B0007F303D05CE
:100BF800B100310830042F042E040319042E052EE9
:100C0800082EBF01BF0A0D2E2A1C0B2E0C2E0D2EEE
:100C1800052E3F080319112E122E3A2E0130AA076D
:100C28000030AB3D0030AC3D0030AD3D2D1C1D2EDD
:100C38001E2E3A2E2A08AE002B08AF002C08B00052
:100C48002D08B1000130B200B137B00CAF0CAE0CBA
:100C5800B20B282E3108AD003008AC002F08AB00CD
:100C68002E08AA000130B8070030B93D3908803A8B
:100C7800AE0080302E02031D432EFF303802031CC5
:100C8800462E472E542EFF302000B8000030B90001
:100C98000030AD000030AC000030AB000030AA00DE
:100CA80020003908803AAE0080302E02031D5E2EE7
:100CB800013038020318612E622E6E2E2000B80112
:100CC800B9010030AD000030AC000030AB0000309E
:100CD800AA00B70120003808AE002E08BE003E1C4E
:100CE800762E772E792EAC177D2E7F30AE002E080B
:100CF800AC053E36AE002E08AD003708AE002E0813
:100D0800AD04422D08008931F12186318B170B176C
:100D18002100CF0100302000E8000030E700273034
:100D2800E6001030E5000030EC000130EB008630C2
:100D3800EA00A030E9000030ED000230EE008C310E
:100D4800F0248631BA30F2000930F3008831F920F6
:100D580086310030F2000030F3008831ED20863112
:100D68002100501CB82EB92ED42E200018162100B0
:100D780050108A31F1228631013A031DC42EC52E46
:100D8800D22E033021004F06031DCB2ECC2ECE2EA3
:100D9800CF01D22E0130B8003808CF072000181232
:100DA8002100501DD82ED92EBA2F20001816210048
:100DB8005011043089315B21863173082100BB0052
:100DC8007208BA00A42F20001610961100302100D6
:100DD800A3001B30A2007730A1004030A0000030F3
:100DE800A7002130A6009130A500C030A4003A0821
:100DF800A8003B08A900AA01AB018E31EC26863178
:100E0800003A0319082F092F172F03102000961CEA
:100E180003140318102F132F20009614152F2000E9
:100E2800961016151A2F20009614161500308731C3
:100E3800BF2786310030893121218631BA2F200021
:100E480016149610161196150030E8000030E700C9
:100E58002730E6001030E5000030EC000130EB00F0
:100E68008630EA00A030E90021003B082000EE00AF
:100E780021003A082000ED008C31F0248631003042
:100E88008731BF2786310130893121218631BA2F38
:100E980003102000161C03140318532F562F20008C
:100EA8001614582F200016100310961C031403184C
:100EB8005E2F612F20009614632F200096100310D8
:100EC800161D03140318692F6C2F200016156E2F9A
:100ED800200016110310961D03140318742F772F82
:100EE80020009615792F2000961101308731BF27F1
:100EF80086310130893121218631BA2F2000161020
:100F08000310961C031403188A2F8D2F20009614A3
:100F18008F2F200096100310161D03140318952F09
:100F2800982F200016159A2F2000161196110130BF
:100F38008731BF2786310030893121218631BA2F88
:100F48004F08B800B9013908003A0319AC2FBA2F75
:100F58003808003A0319E72E013A0319232F033AF8
:100F680003194C2F013A0319822FBA2F20001812A7
:100F7800B42E80312828F4007408031DC42FC52F0F
:100F8800D82F2100CE01D82F01303E00A500A601A0
:100F9800EC2F3E00A5010130A600EC2F01303E00E9
:100FA800A5000130A600EC2F21004E08F200F30145
:100FB8007308003A0319E12FEC2F7208003A03195D
:100FC800C82F013A0319CD2F033A0319D22FEC2F5A
:100FD800023021004E06031DF22FF32FF52FCE010C
:100FE800F92F0130F2007208CE070800FE00120047
:080FF8001E00FE0BFB2F00346C
:1011DA0073082100C7007208C6000800230099019D
:1011EA0025309A009C01080073082100C500720886
:1011FA00C4000800640080010131890B0029003411
:10120A002F0096019701980199019A019B01080004
:10121A00603031008D008F019101033093009201FB
:10122A00080020007008F00A003E8400903003187D
:10123A00013E850000080800F200720803192629F9
:10124A0027292A292E0019162C292E0019120800DE
:10125A0031001712181498101816981610309900A1
:10126A000B309B000B309A00971708002B00920155
:10127A000130930001308E008D018C010F309100F6
:10128A00FF309000FF308F0092170800A034863498
:10129A00013400341034273400340034C03491341B
:1012AA0021340034403477341B340034F500750897
:1012BA0021009E0093171313131400002100131822
:1012CA006729682963290D08F3000C08F200080051
:1012DA003C0091012130920021309300213094008A
:1012EA0021309500023096009701980199018130CA
:1012FA00900008003C009B011F309C001F309D009D
:10130A001F309E001F309F000230A000A101A201E1
:10131A00A30181309A000800433020009F00FF306B
:10132A009D009C012E008C1296160030F2000030AF
:10133A00F3008831F9208931803020009E000800AE
:10134A0022008E018F0190019101920193018D017A
:10135A0021009E019B0194019501960197019A0132
:10136A00990198019430930008002100501401302B
:10137A00F1007108C90709304906031DC529C629A4
:10138A00C829C901D0140130F1007108C8073130E9
:10139A004806031DD129D229D429C80150150800AD
:1013AA002E0019120030F2000030F3008831ED20CF
:1013BA008931083022009F0080309D00B4309E00A1
:1013CA0010309B009C01FC012000EF010830F40062
:1013DA0074082100D10008008931052189318A3138
:1013EA006C22893189310D2189318831F320893183
:1013FA0089316D2189318931A521893189313B2191
:10140A00893189317F21893189312D218931893188
:10141A00912189318931D52189310800FA00F601F3
:10142A00F7017208F400F5017408F8007508F9006C
:10143A007A1C202A212A252A7808F6077908F73DF6
:10144A000130F835F90D890B262A0310FA0C7A08AF
:10145A00031D302A312A1D2A7708F3007608F20084
:10146A00080000302000A3000030A2000030A100D4
:10147A000030A000721C422A432A4C2A7608200017
:10148A00A0077708A13D7808A23D7908A33D01305D
:10149A00F635F70DF80DF90D890B4D2A0130F536A1
:1014AA00F40CF30CF20C890B542A750874047304B7
:1014BA007204031D612A622A3F2A20002308F500CC
:1014CA002208F4002108F3002008F2000800200096
:1014DA00960197019801F0309100EF3092000230A6
:1014EA0093003E00CE01C030C3001030B800E501C1
:1014FA00C401B901CF01BA01C501D0013D004B08B1
:10150A00E0390838CB0010303E0099001B30A300A8
:10151A003D004C08E0390938CC0011303E009800F3
:10152A0017309C001930A2003D004A08E0390A38F9
:10153A00CA004808E0390B38C8004908E0390D38B4
:10154A00C900080075087404730472040319AE2AEA
:10155A00AF2AE82AFB01FB0ABD2A0130F235F30D56
:10156A00F40DF50D890BB32A0130FA007A08FB074E
:10157A00F51FC02AC12AB22A75087902031DCF2A8B
:10158A0074087802031DCF2A73087702031DCF2A35
:10159A0072087602031CD22AD32ADB2A7208F602C0
:1015AA007308F73B7408F83B7508F93B0130F536C8
:1015BA00F40CF30CF20C890BDC2A0130FB02031D3C
:1015CA00E72AE82AC12A7908F5007808F40077089A
:1015DA00F3007608F200080021004D03031DF62AE5
:1015EA00F72A132B14304A020318FC2AFD2A0A2B65
:1015FA0020008C1A012B022B052B2100CA010A2B71
:10160A000130F20072082100CA0714304A06031D8D
:10161A000F2B102B2F2BCD01CA012F2B14304A026E
:10162A000318182B192B262B20008C1E1D2B1E2B62
:10163A00212B2100CA01262B0130F2007208210059
:10164A00CA0714304A06031D2B2B2C2B2F2BCD0136
:10165A00CD0ACA014C08031D332B342B3C2B4D03F6
:10166A00031D382B392B3C2BCB01CB0A3D2BCB014D
:10167A004D08F2007208CC004B0808000310200045
:10168A005C0D5D0DDE005E08E4006408031D4E2B50
:10169A004F2B582B0030DD000030DC000030DB001F
:1016AA000030DA00B72B5A08DE005B08DF005C085E
:1016BA00E0005D08E1001F30E136E00CDF0CDE0CD3
:1016CA00890B612B5E08E2006208E300DC17FF3039
:1016DA00DA05FF30DB05FF30DC050030DD0596302A
:1016EA00E402E41F792B7A2B922B6408803A973E06
:1016FA000318802B812B822B4F2B0130DD36DC0C1B
:10170A00DB0CDA0C890B832B0130DE005E08E40760
:10171A00031D902B912B822BA72B20306402031CD4
:10172A00972B982BA22B4F2B0130DA35DB0DDC0DD2
:10173A00DD0D890B9A2B0130E4026408031DA62BE8
:10174A00A72B992B63080319AB2BAC2BB72BDA0900
:10175A00DB09DC09DD09DA0A0319DB0A0319DC0AE9
:10176A000319DD0A0800003072052000A0000030CD
:10177A007305A10080307405A2007F307505A300AF
:10178A002308220421042004031DCC2BCD2BD52BA6
:10179A000030F5000030F4000030F3000030F200B1
:1017AA0000307605A00000307705A100803078056A
:1017BA00A2007F307905A300230822042104200413
:1017CA00031DE82BE92BF12B0030F9000030F8005B
:1017DA000030F7000030F600F51FF42BF52B0D2C26
:1017EA000030A0000030A1000030A2008030A30029
:1017FA007208A0027308A13B7408A23B7508A33BB8
:10180A002308F5002208F4002108F3002008F2005A
:10181A00F91F102C112C292C0030A0000030A10037
:10182A000030A2008030A3007608A0027708A13B0E
:10183A007808A23B7908A33B2308F9002208F8009C
:10184A002108F7002008F6008030F5068030F906F6
:10185A0079087502031D3B2C78087402031D3B2C82
:10186A0077087302031D3B2C7608720203183E2C7C
:10187A003F2C412C0310422C031408002000A00026
:10188A0020080319492C4A2C5E2CF51F4D2C4E2C8E
:10189A005E2C7209A2007309A3007409A4007509D9
:1018AA00A500A20A0319A30A0319A40A0319A50A7F
:1018BA00662C7508A5007408A4007308A3007208B2
:1018CA00A2007508740473047204031D6D2C6E2C37
:1018DA00772C0030F5000030F4000030F3000030BF
:1018EA00F200EF2C9630F6007608A100872C013022
:1018FA00F6007608A1070130A536A40CA30CA20CA9
:10190A00890B812CFE302505031D8C2C8D2C7C2CFB
:10191A00A12C0130F6007608A1070130A207003099
:10192A00A33D0030A43D0030A53D0130A536A40CEE
:10193A00A30CA20C890B9B2CFF302505031DA62C9A
:10194A00A72C8E2CB12C0130A1020130A235A30D97
:10195A00A40DA50D890BAB2CA41BB42CB52CBB2C48
:10196A00023021020318BA2CBB2CA82C2118BE2C39
:10197A00BF2CC72CFF30A205FF30A3057F30A4057A
:10198A00FF30A5050310A10C2108F600F701F801A4
:10199A00F9011830F635F70DF80DF90D890BCF2C32
:1019AA007608A2047708A3047808A4047908A50491
:1019BA0020080319E12CE22CE72CF51FE52CE62C74
:1019CA00E72CA5172508F5002408F4002308F300DE
:1019DA002208F200080020006808A7006708A6008D
:1019EA006608A5006508A4006C08AB006B08AA008D
:1019FA006A08A9006908A8006D08AC006E08AD0065
:101A0A00AE01AF018D31EC258C3120002708210071
:101A1A00A700200026082100A60020002508210092
:101A2A00A500200024082100A40022001E159F15ED
:101A3A0021002708260425042404031D252D262D0C
:101A4A002C2DFF3022009C00FF309B00EB2D270835
:101A5A00F5002608F4002508F3002408F2000030F7
:101A6A008C3143248C3175082000A9007408A80021
:101A7A007308A7007208A6004A30AD00F430AC0023
:101A8A002430AB000030AA008431D3248C312000EA
:101A9A0029082100A300200028082100A200200014
:101AAA0027082100A100200026082100A000BF303D
:101ABA002000C3008030C2000030C1000030C000E6
:101ACA004130A9000030A8000030A7000030A6006D
:101ADA00210023082000AD00210022082000AC00CC
:101AEA00210021082000AB00210020082000AA00C4
:101AFA008431D3248C3120002908C7002808C60065
:101B0A002708C5002608C40082319B228C31200098
:101B1A0043082100AB00200042082100AA0020004F
:101B2A0041082100A900200040082100A8002B0834
:101B3A00F5002A08F4002908F3002808F20000300A
:101B4A00F9000030F8000030F7000030F6008B3161
:101B5A00B8238C310318B22DB32DB72D22009B0167
:101B6A009C01EB2D4730F5007F30F400FF30F30085
:101B7A000030F20021002B08F9002A08F800290891
:101B8A00F7002808F6008B31B8238C310318CE2DC4
:101B9A00CF2DD02D262D21002B082000DD0021007D
:101BAA002A082000DC00210029082000DB0021008F
:101BBA0028082000DA008B3143238C3120005B088F
:101BCA0022009C0020005A0822009B0008002000E6
:101BDA002F08031DFB2D2E08031DFB2DF4302C02AC
:101BEA0001302D3B031CFA2DFB2D272E20002F0838
:101BFA00031D092E2E08031D092E0D302C0202305A
:101C0A002D3B0318092E0A2E272E20002408280708
:101C1A00B0002508293DB10026082A3DB200270850
:101C2A002B3DB3000130B336B20CB10CB00C890BAA
:101C3A00182E3308BB003208BA003108B900300840
:101C4A00B800E32E200024082802B0002508293B0A
:101C5A00B10026082A3BB20027082B3BB300330801
:101C6A00031D3D2E40303202031C3C2E3D2E822E97
:101C7A00200024082802B0002508293BB1002608C4
:101C8A002A3BB20027082B3BB3000A30B336B20C0A
:101C9A00B10CB00C890B4B2E3308BF003208BE00C2
:101CAA003108BD003008BC003F08F5003E08F400CA
:101CBA003D08F3003C08F2002F08F9002E08F8004E
:101CCA002D08F7002C08F6008A3136228D31720869
:101CDA0020002407B0007308253DB1007408263D92
:101CEA00B2007508273DB3003308BB003208BA00BA
:101CFA003108B9003008B800E32E20002F082E045E
:101D0A002D042C0403198A2E8B2EDB2E240828027C
:101D1A00B0002508293BB10026082A3BB200270853
:101D2A002B3BB3003308F5003208F4003108F30006
:101D3A003008F2002F08F9002E08F8002D08F700E5
:101D4A002C08F6008A3136228D3175082000BF0032
:101D5A007408BE007308BD007208BC002408B000F5
:101D6A002508B1002608B2002708B3003C08B400D1
:101D7A003D08B5003E08B6003F08B7000A30B7363E
:101D8A00B60CB50CB40C890BC42E3408B007350850
:101D9A00B13D3608B23D3708B33D3308BB003208BF
:101DAA00BA003108B9003008B800E32E2708BB0092
:101DBA002608BA002508B9002408B8003B08A7007D
:101DCA003A08A6003908A5003808A400080021002E
:101DDA0023082000A700210022082000A6002100D5
:101DEA0021082000A500210020082000A4002100CD
:101DFA0027082000AB00210026082000AA002100A5
:101E0A0025082000A900210024082000A80021009C
:101E1A002B082000AF0021002A082000AE00210074
:101E2A0029082000AD00210028082000AC008D31CF
:101E3A00EC258E31200027082100AF00200026085B
:101E4A002100AE00200025082100AD002000240852
:101E5A002100AC002F08F5002E08F4002D08F3002D
:101E6A002C08F20000308C3143248E317508200092
:101E7A00AD007408AC007308AB007208AA004A30BF
:101E8A00A900F430A8002430A7000030A60084314D
:101E9A00D3248E3120002908C7002808C600270845
:101EAA00C5002608C4004930C3008030C200003093
:101EBA00C1000030C000803144208E312000430828
:101ECA002100B300200042082100B200200041088E
:101EDA002100B100200040082100B0003308200092
:101EEA00C700210032082000C60021003108200066
:101EFA00C500210030082000C4004030C300003073
:101F0A00C2000030C1000030C000803144208E3150
:101F1A0020004308DD004208DC004108DB004008DD
:101F2A00DA008B3143238E3120005D082100B7008F
:101F3A0020005C082100B60020005B082100B500E3
:101F4A0020005A082100B40034082000E5002100CE
:101F5A0035082000E600210036082000E7002100AD
:101F6A0037082000E8001030E836E70CE60CE50CEC
:101F7A00890BB92F65082B00910021003408200035
:101F8A00E500210035082000E6002100360820007F
:101F9A00E700210037082000E8000830E836E70C9F
:101FAA00E60CE50C890BD32F65082B009000210065
:101FBA0034082B008F0021003708F5003608F4009A
:101FCA003508F3003408F2000030F9001030F80048
:101FDA000030F7000030F6008A31A7228E317508EA
:101FEA00740473047204031DFB2FFC2FFE2F0130AF
:101FFA00FF2F00300800D0349C346C34D034B9340C
:10200A001234D1344A341934F9342134773411343E
:10201A00C134C534CA346C342234713415342B3487
:10202A006F34CC34A734C834AF3415347E34923488
:10203A005334B2345D34C434D234DA34CB342F342A
:10204A008234D2342E3429340134323417341F34D2
:10205A00C6342E34D434AA3464349F343E34C33460
:10206A006C34EF340E347434B634F534A434C834D2
:10207A00AB3442345B343F3487343934913440349E
:10208A006534693477340C34AC34E334E934FA34E3
:10209A0050341B341E34A53460345D3486341E3407
:1020AA00D034CA340434A234F9348C34C334D93425
:1020BA00813480340C3451347F34B4349F340A343C
:1020CA002434E534C6341F342D347C348D34FC3446
:1020DA00C334793494347634CA34583411343734A6
:1020EA004434A534DC34443416344234E7347F347F
:1020FA00CB3473342D34EB34E434BB34E8348F34CA
:10210A0043344B346034D934EB34793467344D3446
:10211A00BF340C3409346434DC342834E1345A349E
:10212A0099342A342D3448343A34B03473348534EB
:10213A007A342E34C034DD3450346D349734E33479
:10214A002A340634E5346D34473488344034FC3458
:10215A00A6343734A3347D34893436342534CE3426
:10216A00083403340A34D03437342134A8340834D8
:10217A009534DA345F34DD344D34D734EB34C93432
:10218A004D345634E834FE34C5348E346B34D53489
:10219A00683412340F343834F634AA34DC347734E1
:1021AA00A8345F345034D6346D34B2347D34FA34C2
:1021BA00D634783441341034DF341D34F83444349E
:1021CA00D93429348C3413341B34B8345234383467
:1021DA002634B634053400349B34A034AD34AB34E1
:1021EA0085345634D934EB348B34B2346E3471348A
:1021FA00CA3499340A3400340034103400340034B8
:06220A0012347A340034A6
:020000040001F9
:0A000E00EC3FFF3F9F3FFF3FFF3F25
:00000001FF
