:020000040000FA
:04000000803119280A
:100008007E1480310B1F09280A2817282100111D8A
:100018000E280F2817282000111D13281428172828
:100028008E31182680317E10090080311B28C73098
:1000380084008D30850060308600013087000D30E7
:100048008D3169258031F601F701F801F901FA01CE
:10005800CE308400003085001C308D31632580311E
:10006800203084000130850032308D3163258031A5
:100078007E102000803140288E315E268031063087
:100088008D31D42580318B170B17FF302100ED00FF
:10009800FF30EC00FF30EB00FF30EA000030E900F1
:1000A8000030E8000030E7000030E600FF302200B2
:1000B800D500FF30D400FF30D300FF30D20000302D
:1000C8002100E5000030E4000030E3000030E200E9
:1000D8003E30A5008830A6005830A7008830A80018
:1000E8008E312E2680316730860001308700C63079
:1000F80084000030850006302100C20016001A0076
:10010800C20B8228CD104D1421005B1C8C288D2831
:10011800882822008C1621004D1893289528013034
:1001280096280030C20020008C199B289D28013099
:100138009E280030210042060319A328A428BD28C0
:100148004D080139C2000130C2064D084206FE3989
:100158004206CD004D18B128B228BD284D0C0139F2
:10016800C2000130C206C20D4D084206FD394206E2
:10017800CD008D3186258031200021082100DD0049
:10018800200020082100DC006D085602031DD62837
:100198006C085502031DD6286B085402031DD62887
:1001A8006A0853020318D928DA28E6280530CE3E13
:1001B80086008701403FEA00413FEB00423FEC00E8
:1001C800433FED0056086902031DF42855086802EC
:1001D800031DF42854086702031DF4285308660217
:1001E8000318F728F82804290530CE3E8600870131
:1001F800403FE600413FE700423FE800433FE90057
:100208005C08C2005D08C300C401C5014508650259
:10021800031D182944086402031D182943086302B2
:10022800031D18294208620203181B291C292229C8
:100238005C08E2005D08E300E401E5015C08C20037
:100248005D08C300C401C50122005508210045020C
:10025800031D3E292200540821004402031D3E29A3
:100268002200530821004302031D3E2922005208A0
:10027800210042020318412942294B295C08220027
:10028800D20021005D082200D300D401D50120004E
:100298008C194F2950297429FF302100ED00FF30B7
:1002A800EC00FF30EB00FF30EA000030E9000030DE
:1002B800E8000030E7000030E600FF302200D500FB
:1002C800FF30D400FF30D300FF30D20000302100CF
:1002D800E5000030E4000030E3000030E200E62AE8
:1002E80021006A086602C2006B08673BC3006C08FD
:1002F800683BC4006D08693BC50045082200AF0093
:10030800210044082200AE00210043082200AD006D
:10031800210042082200AC00210069082000AF003B
:10032800210068082000AE00210067082000AD0009
:10033800210066082000AC0021006A086602C2009D
:100348006B08673BC3006C08683BC4006D08693BD9
:10035800C50045082000A300210044082000A20091
:10036800210043082000A100210042082000A0002D
:100378000030A7000030A6000030A5006430A400BB
:100388008E31FC26803120002308B3002208B200F9
:100398002108B1002008B0008731522780312000A1
:1003A8002F082200AB0020002E082200AA002000FF
:1003B8002D082200A90020002C082200A8005208BD
:1003C80021006202C200220053082100633BC300DF
:1003D800220054082100643BC40022005508210073
:1003E800653BC50045082200A700210044082200FB
:1003F800A600210043082200A5002100420822008F
:10040800A400210065082000AF0021006408200036
:10041800AE00210063082000AD0021006208200022
:10042800AC002200520821006202C20022005308D8
:100438002100633BC300220054082100643BC40030
:10044800220055082100653BC50045082000A3008F
:10045800210044082000A200210043082000A10038
:10046800210042082000A0000030A7000030A600AC
:100478000030A5006430A4008E31FC2680312000B5
:100488002308B3002208B2002108B1002008B000F8
:1004980087315227803120002F082200A300200036
:1004A8002E082200A20020002D082200A100200012
:1004B8002C082200A0002100CD18632A642AC02A33
:1004C800F930A5008730A6005D08A8005C08A700E1
:1004D800220027082100AC00220026082100AB00DA
:1004E800220025082100AA00220024082100A900D2
:1004F800220023082100B000220022082100AF00BA
:10050800220021082100AE00220020082100AD00B1
:100518004F08B2004E08B1000530CE3E8600870174
:10052800403FB300413FB400423FB500433FB600EF
:1005380022002F082100BA0022002E082100B9004D
:1005480022002D082100B80022002C082100B70045
:1005580022002B082100BE0022002A082100BD002D
:10056800220029082100BC00220028082100BB0025
:100578008E312E268031E42A5C08C2004208C7006A
:100588005D08C2004208C8004E08C2004208C900FF
:100598004F08C2004208CA00CC014C08C63E86007B
:1005A800870101088D31BD25803101302100C2004D
:1005B8004208CC0706304C02031CE32AE42AD12A5D
:1005C80021005B1022008C12882880311928200015
:1005D800EB00530886008701403FD500413FD60015
:1005E80055088400560885001200253A031DFD2A87
:1005F800FE2A242C530886008701013081074131E7
:100608000318810A2100E001E101F801F901FF3036
:10061800F600FF30F7002000530886008701403FAE
:10062800D500413FD60055088400560885001200C1
:10063800733A031D202B212B432B53088600870177
:100648000130810741310318810A54088600870167
:1006580001088400850102308107003FE100013F65
:10066800E2006208AB006108AA006B0885313025FA
:10067800823120002B08D4002A08D300472C5308C5
:1006880086008701403FD500413FD60055088400C9
:10069800560885001200753A031D532B542B882BDE
:1006A8005308860087010130810741310318810A08
:1006B80054088600870101088400850102308107FB
:1006C800003FE300013FE400E501E601E701E8013E
:1006D800E901EA016308BB006408BC006508BD00C5
:1006E8006608BE006708BF006808C0006908C10046
:1006F8006A08C2006B0884314824823120003C0813
:10070800D4003B08D300472C530886008701403F9C
:10071800A000413FA1006430A2008830A30002304D
:10072800A4000030A5008631F5268231200020087B
:100738002104031DA02BA12BEF2B53088600870152
:100748000230810741310318810A54088600870165
:1007580001088400850104308107003FD500013F6E
:10076800D600023FD700033FD8005508D9005608E5
:10077800DA005708DB005808DC00DD01DE01DF0184
:10078800E0016008EA005F08E9005E08E8005D082B
:10079800E7005C08E6005B08E5005A08E400590831
:1007A800E3006308BB006408BC006508BD00660878
:1007B800BE006708BF006808C0006908C1006A0871
:1007C800C2006B0884314824823120003C08D400E0
:1007D8003B08D300472C530886008701403FD500CB
:1007E800413FD60055088400560885001200253A76
:1007F800031DFF2B002C192C53088600870101309C
:10080800810741310318810A2530A2000030A30076
:100818006B08D5005508A4008F3166278231013056
:100828002000D3000030D400472C530886008701ED
:100838000130810741310318810AD301D401472CC3
:10084800530886008701403FD500413FD600550830
:100858008400560885000008D700D8015708A20070
:100868005808A3006B08D9005908A4008F316627DF
:100878008231200053088600870101308107413109
:100888000318810A132C08002000C800F71B4D2C00
:100898004E2C522CFD30F805FF30F9057708803AC8
:1008A800C30080304302031D5B2C0130760203181D
:1008B8005E2C5F2C652C01302000C4000030C50080
:1008C8006A2C77082000C5007608C400210061085A
:1008D8002000C700210060082000C6003B08C900AE
:1008E8003C08CA003D08CB003E08CC003F08CD00BC
:1008F8004008CE004108CF004208D0001F30D10088
:100908000030D2002200D101EA2CFF302000D107AC
:10091800FF30D23D0A30A000A101A201A301A40129
:10092800A501A601A7014908A8004A08A9004B0883
:10093800AA004C08AB004D08AC004E08AD004F08AB
:10094800AE005008AF00863184268431200020088C
:10095800303EC3005108323E86000130870043080C
:100968008100FF30C407FF30C53DFF30C607FF30A8
:10097800C73D0A30A000A101A201A301A401A5015D
:10098800A601A7014908A8004A08A9004B08AA001F
:100998004C08AB004D08AC004E08AD004F08AE0047
:1009A8005008AF0086310026843120002008C90095
:1009B8002108CA002208CB002308CC002408CD0057
:1009C8002508CE002608CF002708D00020005108AF
:1009D80052040319F02CF12C1C2D49084A044B042D
:1009E8004C044D044E044F045004031DFC2CFD2CF4
:1009F800892C4508803AC30080304302031D062D28
:100A0800013044020318092D0A2D892C20004708BB
:100A1800803AC30080304302031D142D0130460282
:100A2800031C172D182D1C2DF8181B2D1C2D892C77
:100A380020005108323EC3004308B2004708B40002
:100A48004608B30048088F31A727843120003308AF
:100A5800BC003208BB0008002000BC0060308600E3
:100A6800013087002F308400003085000730AC004B
:100A780016001A00AC0B3C2D2B08BB002A08BA0044
:100A88003A083B04031D492D4A2D4E2D2F30BA003C
:100A98000030BB003B08A1003A08A0008E31442674
:100AA800853120002108C0002008BF007708BE005B
:100AB8007608BD00BE1B612D622D762D3E08803A5A
:100AC800AC004008803A2C02031D6C2D3F083D0203
:100AD800031C6F2D702D712D762D20003E08C0004F
:100AE8003D08BF0020004008BE003F08BD002100AF
:100AF80061082000B900210060082000B8007818BB
:100B0800862D872DA72D992D20302000A20000309A
:100B1800A3003C08AC002C08A4008F31662785315F
:100B280001302000BF070030C03D4008803AAC00CB
:100B38003908803A2C02031DA32D38083F02031CF4
:100B4800A62DA72D882D2000B601B701C72D20009E
:100B58003A0884003B0885000008AC00AD012C0869
:100B6800A2002D08A3003C08AE002E08A4008F3177
:100B78006627853101302000BA070030BB3D0130BF
:100B8800B6070030B73D3708803AAC003E08803AD7
:100B98002C02031DD12D3D083602031CD42DD52D62
:100BA800AB2D781CD82DD92DFA2DEB2D2030200017
:100BB800A2000030A3003C08AC002C08A4008F3130
:100BC8006627853101302000BF070030C03D200076
:100BD8004008803AAC003908803A2C02031DF62DF3
:100BE80038083F02031CF92DFA2DDA2D20004008A1
:100BF800AB003F08AA0008003130860000308700AB
:100C080008302000B00000301E00B00B082E20086D
:100C18002104220423042404250426042704031998
:100C2800162E172E732EB901B90A262EA035A10D3E
:100C3800A20DA30DA40DA50DA60DA70D0130B000A2
:100C48003008B907A71F292E2A2E1A2EB135B20D42
:100C5800B30DB40DB50DB60DB70DB80D27082F029D
:100C6800031D502E26082E02031D502E25082D0286
:100C7800031D502E24082C02031D502E23082B027E
:100C8800031D502E22082A02031D502E2108290276
:100C9800031D502E20082802031C532E542E652EA7
:100CA8002008A8022108A93B2208AA3B2308AB3B3D
:100CB8002408AC3B2508AD3B2608AE3B2708AF3BD4
:100CC8003114A736A60CA50CA40CA30CA20CA10CDD
:100CD800A00C0130B902031D722E732E2A2E310882
:100CE800A0003208A1003308A2003408A300350888
:100CF800A4003608A5003708A6003808A700080091
:100D080020002008210422042304240425042604A6
:100D180027040319902E912EE42EB101B10AA02EBA
:100D2800A035A10DA20DA30DA40DA50DA60DA70D0F
:100D38000130B0003008B107A71FA32EA42E942EAF
:100D480027082F02031DC22E26082E02031DC22EBD
:100D580025082D02031DC22E24082C02031DC22EB5
:100D680023082B02031DC22E22082A02031DC22EAD
:100D780021082902031DC22E20082802031CC52EA3
:100D8800C62ED62E2008A8022108A93B2208AA3B75
:100D98002308AB3B2408AC3B2508AD3B2608AE3BFB
:100DA8002708AF3BA736A60CA50CA40CA30CA20CD5
:100DB800A10CA00C0130B102031DE32EE42EA42ED9
:100DC8002808A0002908A1002A08A2002B08A300CF
:100DD8002C08A4002D08A5002E08A6002F08A7009F
:100DE800080020002108A8002008A7002308AA005E
:100DF8002208A9000130A4020030A53B240A031DE3
:100E0800092F250A031D092F0A2F192FA001A10157
:100E1800512F0130A7070030A83D0130A907003045
:100E2800AA3D0130A4020030A53B27088400280809
:100E3800850012000319212F222F412F2908840031
:100E48002A088500120003192A2F2B2F412F240866
:100E580025040319302F312F412F290884002A082F
:100E680085000008A60027088400280885000008D7
:100E780026060319402F412F0D2F27088400280824
:100E880085000008A600290884002A0885000008B3
:100E98002602A000A101031CA103080000302000C5
:100EA800B8000030B7000030B6000030B5002F0899
:100EB8002E042D042C040319622F632FA42FB901CB
:100EC800B90A712F0130AC35AD0DAE0DAF0D890BE0
:100ED800672F0130B4003408B907AF1F742F752F7E
:100EE800662F0130B535B60DB70DB80D890B762FC5
:100EF8002F083302031D8A2F2E083202031D8A2F62
:100F08002D083102031D8A2F2C083002031C8D2F57
:100F18008E2F972F2C08B0022D08B13B2E08B23B1C
:100F28002F08B33B35140130AF36AE0CAD0CAC0C0A
:100F3800890B982F0130B902031DA32FA42F752FF9
:100F48003808AF003708AE003608AD003508AC00E9
:100F58000800710821005102031DB42F70085002C7
:100F68000318B72FB82FC32F0230CE3E8600870153
:100F7800403F7002CE00413F713BCF00CE2F70083A
:100F88005002CE007108513BCF00CE09CF09CE0ADE
:100F98000319CF0A7108D1007008D0004E08D7078E
:100FA8004F08D83D0030D93DDA3D0130F2007208D3
:100FB800D2075B145208031DE22FE32FF82F0930E4
:100FC800CE3E86008701403FD300413FD400423FD8
:100FD800D500433FD6000030DA000030D900003099
:100FE800D8000030D7005B140800503465346134F1
:100FF8006B3420343D342034253475342034443463
:1010080069346634663420343D34203425346C34F5
:101018007534203425346C347534253425342C3417
:1010280020344C34433420343D3420342534753452
:101038002034463472346534713420343D342034DD
:1010480025346C347534203448347A3420344434AC
:1010580069346634663420343D34203425346C34A5
:101068007534203425346C347534253425340D34E6
:101078000A3400344C34433420344D3465347434E9
:1010880065347234203456346534723473346934B8
:101098006F346E34203431342E34313420342534D6
:1010A80073340D340A3400345334653470342034C6
:1010B8002034343420343234303432343034003450
:0610C8006C3475340034A5
:101AAA00C0302A009500080016302100970008006F
:101ABA008430220093000130940008006400800101
:101ACA000131890B642D0034FE0012001E00FE0B4A
:101ADA006A2D00342000A10021088D31BD258D31E9
:101AEA0008007830210099009A0198012200960195
:101AFA000800F33020009B009A01911007309C00E7
:101B0A00080021001C082000A10021001B08200059
:101B1A00A0000800200021082200D7002000200889
:101B2A002200D6000800200021082200DB00200045
:101B3A0020082200DA000800200021082200DF0025
:101B4A00200020082200DE000800200021082200D0
:101B5A00DD00200020082200DC000800D03021002F
:101B6A009E0090309F009B019C0101309D0008005F
:101B7A002000A000111EC22DC32DBF2D2008230056
:101B8A009A00080028346E3475346C346C34293465
:101B9A00003403340034003400340034FC342000B0
:101BAA00A1002108A000A00DA00D21001D08200001
:101BBA0020068339200621009D001D1408000230EA
:101BCA003E009B001A309C009D019E019F0102303D
:101BDA00A000A101A201A30180309A0008000530EB
:101BEA002500930091019201AD302000A00007303A
:101BFA00A1008D318F258D31200011112100111581
:101C0A000800200099010630970040309600111014
:101C1A0017082200D900200016082200D8008130B7
:101C2A002000980008002000111125001108F30077
:101C3A007308F4001208F3007308F5007508F10040
:101C4A007408F000220057088A0056080A008E31EC
:101C5A000800A7302000EF006F082100C100260805
:101C6A002000ED00210025082000EC00C130EF0023
:101C7A006F08EE0000308F3130278E3108002000C7
:101C8A002108A4002008A3004E2E0130A00700302E
:101C9A00A13D20088400210885001200031D562E4C
:101CAA00572E4A2E23082002A0002408213BA10017
:101CBA0008008E31CD268E318D3176258E318D31CB
:101CCA0059258E318D315D258E318D31B3258E3179
:101CDA008D31F4258E318D3155258E318D31E425A6
:101CEA008E318D317E258E318E3106268E318E31A2
:101CFA0080268E310800083023009F0080309D0026
:101D0A0024309E0022309B009C0100302000A0005D
:101D1A000030A1008D31A1258E3100302000A000B5
:101D2A000030A1008D31AA258E3100302000A0009C
:101D3A000030A1008D3198258E31FA01080020006B
:101D4A00B100AF01B001BC2E2E08AB00AC012B08CC
:101D5A00A2002C08A3002A08AD002D08A4008F3188
:101D6A0066278E3101302000AF070030B03D2F08C2
:101D7A003107AB002B088600013087000108AC0050
:101D8A002C08AE002E08031DCB2ECC2EA92E08003F
:101D9A0022008C018E0121008C0137308E003F30E9
:101DAA0023008E008C01093024008C008E01210052
:101DBA00951725008C018E01373026008C003F30A4
:101DCA008E003F3027008C003F308E0002303C00EE
:101DDA00920014303D00940013303C00A8000130FA
:101DEA00940005303D009100173092000800003041
:101DFA002000AB000030AA000030A9000030A80083
:101E0A00201C082F092F112F2408A8072508A93DEF
:101E1A002608AA3D2708AB3D0130A435A50DA60D1D
:101E2A00A70D890B122F0130A336A20CA10CA00C0E
:101E3A00890B192F2308220421042004031D262FAD
:101E4A00272F052F2B08A3002A08A2002908A10082
:101E5A002808A00008002100A20020006D08210027
:101E6A00A40020006C082100A300DE01DF01552F29
:101E7A00A330A00020082000D3006E082100A10092
:101E8A0021082000D400210022088231EB228F3160
:101E9A00200053082100DE07200054082100DF3DFE
:101EAA0023088400240885001200031D5D2F5E2F7D
:101EBA003D2F5F082000ED0021005E082000EC00A5
:101ECA0008002000240803196B2F6C2F712F240897
:101EDA00031D702F712F762F22088D316F258F31B8
:101EEA00A62F2408033E8600870116000104031961
:101EFA007F2F802F9D2F2408033E86008701403FB5
:101F0A00A500413FA600240A86008701403FA7009A
:101F1A00413FA8002808803AA9002608803A2902E9
:101F2A00031D992F2508270203189C2F9D2FA62FE2
:101F3A002000240A860087010130810741310318F5
:101F4A00810A08002000BA00781CAC2FAD2FB52FEB
:101F5A003A08B5003508AA0032088E31A4268F3116
:101F6A002000B41BB92FBA2FBF2F3408B900330889
:101F7A00B800C12FB801B901B601B701D52F203079
:101F8A002000A2000030A3003A08B5003508A400DA
:101F9A008F3166278F3101302000B6070030B73DF8
:101FAA003708803AB5003908803A3502031DDF2F19
:101FBA0038083602031CE22FE32FC42F7818E62FC5
:101FCA00E72FF02F20003A08B5003508AA0032089A
:101FDA008E31A4268F3120003208A0000130A100E2
:101FEA008E3144268F31200038082007B200390884
:061FFA00213DB3000800C8
:020000040001F9
:04000E00A43FFF1EEE
:00000001FF
